S00E00005041434D414E2E7372656366
S11300000C9434000C9451000C9451000C94510045
S11300100C9451000C9451000C9451000C94510018
S11300200C9451000C9451000C9451000C94510008
S11300300C9451000C9451000C9451000C945100F8
S11300400C9451000C9451000C9451000C945100E8
S11300500C9451000C9451000C9451000C945100D8
S11300600C9451000C94510011241FBECFEFD8E022
S1130070DEBFCDBF11E0A0E0B1E0ECE7F5E002C0E7
S113008005900D92A034B107D9F721E0A0E4B1E0C6
S113009001C01D92A034B207E1F70E94A0020C94A3
S11300A0BC020C94000084B1876084B98AB1806F6B
S11300B08AB985B1887F85B98BB18F708BB9089562
S11300C08FE99FE00197F1F700C0000028982A9873
S11300D080E38BB9299AEFE1FEE43197F1F700C090
S11300E000002998EFE9FFE03197F1F700C0000024
S11300F028982A988BB9299AEFE1FEE43197F1F711
S113010000C000002998EFE9FFE03197F1F700C043
S1130110000028982A988BB9299A8FE19EE40197C8
S1130120F1F700C000002998EFE9FFE03197F1F7FB
S113013000C0000028982A9880E28BB9299A8FE1A0
S11301409EE40197F1F700C00000299808959BB13F
S11301509F709BB99BB1282F207F922B9BB9289825
S11301602A98299AEFE1FEE43197F1F700C00000E4
S113017029989BB19F709BB99BB18295807F892BF5
S11301808BB928982A98299A8FE19EE40197F1F770
S113019000C00000299808950E9460008FE99FE044
S11301A00197F1F700C0000088E20E94A70081E0F7
S11301B00E94A70086E00E94A7008EE00E94A7008C
S11301C080E80E94A700089580E80E94A70008958F
S11301D0823071F018F4813031F00895833069F081
S11301E0843081F008958FE7860F0E94A700089558
S11301F08FEB860F0E94A700089583E9860F0E9463
S1130200A700089583ED860F0E94A700089581E05A
S11302100E94A7000895CF93C42F0E94E8008BB1D9
S11302208F708BB98BB19C2F907F892B8BB9289AB7
S11302302A98299A8FE19EE40197F1F700C0000003
S113024029988BB18F708BB98BB1C295C07FC82BA5
S1130250CBB9289A2A98299A8FE19EE40197F1F75D
S113026000C000002998CF9108950F931F93CF9356
S1130270DF93D82FC62FFA014081442369F08F0100
S11302800F5F1F4F6C2F8D2F0E940B01CF5FF80162
S113029041918F014111F6CFDF91CF911F910F91C1
S11302A008950F931F93CF93DF93883090F48B01BD
S11302B0880F880F880F805C0E94A700E801085F00
S11302C01F4F499160E080E00E940B01C017D107E5
S11302D0C1F7DF91CF911F910F910895CF93DF93D1
S11302E0CDB7DEB7C054D1090FB6F894DEBF0FBE48
S11302F0CDBF88E0E0E0F1E0DE01119601900D92BF
S11303008A95E1F788E0E8E0F1E0DE0119960190D2
S11303100D928A95E1F788E0E0E1F1E0DE01519683
S113032001900D928A95E1F788E0E8E1F1E0DE01C1
S1130330599601900D928A95E1F788E0E0E2F1E0A8
S1130340DE01919601900D928A95E1F788E0E0E054
S1130350F1E0DE01999601900D928A95E1F788E02B
S1130360E8E2F1E0DE01D19601900D928A95E1F781
S113037088E0E0E3F1E0DE01D99601900D928A95E0
S1130380E1F7BE016F5F7F4F87E00E945101BE011C
S1130390675F7F4F81E00E945101BE016F5E7F4F16
S11303A082E00E945101BE01675E7F4F83E00E949C
S11303B05101BE016F5D7F4F84E00E945101BE0177
S11303C0675D7F4F85E00E945101BE016F5C7F4FE6
S11303D086E00E945101BE01675C7F4F80E00E946D
S11303E05101C05CDF4F0FB6F894DEBF0FBECDBF26
S11303F0DF91CF910895CF93DF9343E060E182E0F2
S11304000E940B01C1E044E06C2F82E00E940B01CA
S1130410C0FD06C043E060E182E00E940B0105C01C
S113042042E060E182E00E940B012FEF81EE94E054
S1130430215080409040E1F700C00000CF5FC03100
S113044011F7D0E0C1E0CD0FC0FD1EC040E26C2F1B
S113045082E00E940B0141E06C2F82E00E940B01BC
S113046043E060E182E00E940B0140E26D2F82E0F4
S11304700E940B012FE789EA93E0215080409040CD
S1130480E1F700C000001DC040E26C2F82E00E9432
S11304900B0147E06C2F82E00E940B0142E060E117
S11304A082E00E940B0140E26D2F82E00E940B016A
S11304B02FE789EA93E0215080409040E1F700C0A3
S11304C000002FEF82E597E0215080409040E1F753
S11304D000C00000DC2FCF3009F0B4CF45E06FE05E
S11304E082E00E940B012FEF82E597E021508040CB
S11304F09040E1F700C0000046E06FE082E00E9417
S11305000B012FEF82E597E0215080409040E1F706
S113051000C0000040E06FE082E00E940B012FEF7A
S113052082E597E0215080409040E1F700C0000050
S113053040E26FE082E00E940B01DF91CF910895C9
S11305400E9453000E94CC000E946E010E94070189
S11305500E94E40048E351E065E081E00E94350137
S11305600E94FB012FEF87EA91E6215080409040E2
S10F0570E1F700C00000EACFF894FFCFD0
S113057C000E1F1F1F0E0000000F1E181E0F000080
S113058C000E1F151F150000000E1F151F0A00007A
S113059C0000000C0C000000000A1B1F1F0E0000C2
S11305AC000000040E0E00005041434D414E00006B
S9030000FC
